{
  "address": "0xCf7Ed3AccA5a467e9e704C703E8D87F634fB0Fc9",
  "abi": [
    {
      "inputs": [
        {
          "internalType": "address",
          "name": "vrfCoordinator",
          "type": "address"
        },
        {
          "internalType": "uint256",
          "name": "entrancefees",
          "type": "uint256"
        },
        {
          "internalType": "bytes32",
          "name": "gasLane",
          "type": "bytes32"
        },
        {
          "internalType": "uint64",
          "name": "subscriptionId",
          "type": "uint64"
        },
        {
          "internalType": "uint32",
          "name": "callbackGasLimit",
          "type": "uint32"
        },
        {
          "internalType": "uint256",
          "name": "interval",
          "type": "uint256"
        }
      ],
      "stateMutability": "nonpayable",
      "type": "constructor"
    },
    {
      "inputs": [
        {
          "internalType": "address",
          "name": "have",
          "type": "address"
        },
        {
          "internalType": "address",
          "name": "want",
          "type": "address"
        }
      ],
      "name": "OnlyCoordinatorCanFulfill",
      "type": "error"
    },
    {
      "inputs": [],
      "name": "Raffle_TransferFailed",
      "type": "error"
    },
    {
      "inputs": [],
      "name": "Raffle__NotOpen",
      "type": "error"
    },
    {
      "inputs": [
        {
          "internalType": "uint256",
          "name": "balance",
          "type": "uint256"
        },
        {
          "internalType": "uint256",
          "name": "numPLayers",
          "type": "uint256"
        },
        {
          "internalType": "uint256",
          "name": "raffleState",
          "type": "uint256"
        }
      ],
      "name": "Raffle__UpKeepNotNeeded",
      "type": "error"
    },
    {
      "anonymous": false,
      "inputs": [
        {
          "indexed": true,
          "internalType": "address",
          "name": "player",
          "type": "address"
        }
      ],
      "name": "RaffleEnter",
      "type": "event"
    },
    {
      "anonymous": false,
      "inputs": [
        {
          "indexed": true,
          "internalType": "uint256",
          "name": "requestId",
          "type": "uint256"
        }
      ],
      "name": "RequestRandomNumber",
      "type": "event"
    },
    {
      "anonymous": false,
      "inputs": [
        {
          "indexed": true,
          "internalType": "address",
          "name": "winner",
          "type": "address"
        }
      ],
      "name": "Winners",
      "type": "event"
    },
    {
      "inputs": [
        {
          "internalType": "bytes",
          "name": "",
          "type": "bytes"
        }
      ],
      "name": "checkUpkeep",
      "outputs": [
        {
          "internalType": "bool",
          "name": "upkeepNeeded",
          "type": "bool"
        },
        {
          "internalType": "bytes",
          "name": "",
          "type": "bytes"
        }
      ],
      "stateMutability": "nonpayable",
      "type": "function"
    },
    {
      "inputs": [],
      "name": "enterRaffle",
      "outputs": [],
      "stateMutability": "payable",
      "type": "function"
    },
    {
      "inputs": [],
      "name": "getEntranceFees",
      "outputs": [
        {
          "internalType": "uint256",
          "name": "",
          "type": "uint256"
        }
      ],
      "stateMutability": "view",
      "type": "function"
    },
    {
      "inputs": [],
      "name": "getInterval",
      "outputs": [
        {
          "internalType": "uint256",
          "name": "",
          "type": "uint256"
        }
      ],
      "stateMutability": "view",
      "type": "function"
    },
    {
      "inputs": [],
      "name": "getLastTimeStamp",
      "outputs": [
        {
          "internalType": "uint256",
          "name": "",
          "type": "uint256"
        }
      ],
      "stateMutability": "view",
      "type": "function"
    },
    {
      "inputs": [],
      "name": "getNumWords",
      "outputs": [
        {
          "internalType": "uint256",
          "name": "",
          "type": "uint256"
        }
      ],
      "stateMutability": "pure",
      "type": "function"
    },
    {
      "inputs": [],
      "name": "getNumberofPLayers",
      "outputs": [
        {
          "internalType": "uint256",
          "name": "",
          "type": "uint256"
        }
      ],
      "stateMutability": "view",
      "type": "function"
    },
    {
      "inputs": [
        {
          "internalType": "uint256",
          "name": "index",
          "type": "uint256"
        }
      ],
      "name": "getPlayer",
      "outputs": [
        {
          "internalType": "address",
          "name": "",
          "type": "address"
        }
      ],
      "stateMutability": "view",
      "type": "function"
    },
    {
      "inputs": [],
      "name": "getRaffleState",
      "outputs": [
        {
          "internalType": "enum Raffle.RaffleState",
          "name": "",
          "type": "uint8"
        }
      ],
      "stateMutability": "view",
      "type": "function"
    },
    {
      "inputs": [],
      "name": "getRecentWinner",
      "outputs": [
        {
          "internalType": "address",
          "name": "",
          "type": "address"
        }
      ],
      "stateMutability": "view",
      "type": "function"
    },
    {
      "inputs": [
        {
          "internalType": "bytes",
          "name": "",
          "type": "bytes"
        }
      ],
      "name": "performUpkeep",
      "outputs": [],
      "stateMutability": "nonpayable",
      "type": "function"
    },
    {
      "inputs": [
        {
          "internalType": "uint256",
          "name": "requestId",
          "type": "uint256"
        },
        {
          "internalType": "uint256[]",
          "name": "randomWords",
          "type": "uint256[]"
        }
      ],
      "name": "rawFulfillRandomWords",
      "outputs": [],
      "stateMutability": "nonpayable",
      "type": "function"
    },
    {
      "inputs": [],
      "name": "requestConfirmations",
      "outputs": [
        {
          "internalType": "uint256",
          "name": "",
          "type": "uint256"
        }
      ],
      "stateMutability": "pure",
      "type": "function"
    }
  ],
  "transactionHash": "0xb425e3a2168fd99f4473168e15b3ff3f07663bee4aea961c68bf6f0d812a2558",
  "args": [
    "0x5FbDB2315678afecb367f032d93F642f64180aa3",
    "10000000000000000",
    "0xd89b2bf150e3b9e13446986e571fb9cab24b13cea0a43ea20a6049a85cc807cc",
    "1",
    "500000",
    "30"
  ],
  "numDeployments": 1,
  "solcInputHash": "3a88fef0025bf21facee1ec2322717a5",
  "bytecode": "0x6101606040526000600260146101000a81548160ff021916908360018111156200002e576200002d6200013a565b5b02179055503480156200004057600080fd5b506040516200192b3803806200192b8339818101604052810190620000669190620002cf565b858073ffffffffffffffffffffffffffffffffffffffff1660808173ffffffffffffffffffffffffffffffffffffffff1660601b81525050508573ffffffffffffffffffffffffffffffffffffffff1660c08173ffffffffffffffffffffffffffffffffffffffff1660601b815250508460a081815250508360e081815250508267ffffffffffffffff166101008167ffffffffffffffff1660c01b815250508163ffffffff166101208163ffffffff1660e01b81525050426001819055508061014081815250505050505050506200036b565b7f4e487b7100000000000000000000000000000000000000000000000000000000600052602160045260246000fd5b600080fd5b600073ffffffffffffffffffffffffffffffffffffffff82169050919050565b60006200019b826200016e565b9050919050565b620001ad816200018e565b8114620001b957600080fd5b50565b600081519050620001cd81620001a2565b92915050565b6000819050919050565b620001e881620001d3565b8114620001f457600080fd5b50565b6000815190506200020881620001dd565b92915050565b6000819050919050565b62000223816200020e565b81146200022f57600080fd5b50565b600081519050620002438162000218565b92915050565b600067ffffffffffffffff82169050919050565b620002688162000249565b81146200027457600080fd5b50565b60008151905062000288816200025d565b92915050565b600063ffffffff82169050919050565b620002a9816200028e565b8114620002b557600080fd5b50565b600081519050620002c9816200029e565b92915050565b60008060008060008060c08789031215620002ef57620002ee62000169565b5b6000620002ff89828a01620001bc565b96505060206200031289828a01620001f7565b95505060406200032589828a0162000232565b94505060606200033889828a0162000277565b93505060806200034b89828a01620002b8565b92505060a06200035e89828a01620001f7565b9150509295509295509295565b60805160601c60a05160c05160601c60e0516101005160c01c6101205160e01c61014051611544620003e7600039600081816107bd0152610834015260006106510152600061062e0152600061060d015260006105d10152600081816103cf015261074701526000818161030f015261036301526115446000f3fe6080604052600436106100c25760003560e01c806353a2c19a1161007f578063a3d9196211610059578063a3d9196214610238578063b0fb162f14610263578063c1c244e81461028e578063e55ae4e8146102b9576100c2565b806353a2c19a146101a45780636e04ff0d146101cf57806391ad27b41461020d576100c2565b8063115cbaf5146100c75780631fe543e3146100f25780632cfcc5391461011b5780634585e33b14610125578063473f1ddc1461014e5780634a26d4f414610179575b600080fd5b3480156100d357600080fd5b506100dc6102f6565b6040516100e99190610c80565b60405180910390f35b3480156100fe57600080fd5b5061011960048036038101906101149190610e3e565b61030d565b005b6101236103cd565b005b34801561013157600080fd5b5061014c60048036038101906101479190610ef5565b610544565b005b34801561015a57600080fd5b50610163610719565b6040516101709190610f83565b60405180910390f35b34801561018557600080fd5b5061018e610743565b60405161019b9190610fad565b60405180910390f35b3480156101b057600080fd5b506101b961076b565b6040516101c69190610fad565b60405180910390f35b3480156101db57600080fd5b506101f660048036038101906101f1919061107d565b61077a565b604051610204929190611169565b60405180910390f35b34801561021957600080fd5b50610222610830565b60405161022f9190610fad565b60405180910390f35b34801561024457600080fd5b5061024d610858565b60405161025a9190610fad565b60405180910390f35b34801561026f57600080fd5b50610278610864565b6040516102859190610fad565b60405180910390f35b34801561029a57600080fd5b506102a3610871565b6040516102b09190610fad565b60405180910390f35b3480156102c557600080fd5b506102e060048036038101906102db9190611199565b61087b565b6040516102ed9190610f83565b60405180910390f35b6000600260149054906101000a900460ff16905090565b7f000000000000000000000000000000000000000000000000000000000000000073ffffffffffffffffffffffffffffffffffffffff163373ffffffffffffffffffffffffffffffffffffffff16146103bf57337f00000000000000000000000000000000000000000000000000000000000000006040517f1cf993f40000000000000000000000000000000000000000000000000000000081526004016103b69291906111c6565b60405180910390fd5b6103c982826108c2565b5050565b7f0000000000000000000000000000000000000000000000000000000000000000341461042f576040517f08c379a000000000000000000000000000000000000000000000000000000000815260040161042690611272565b60405180910390fd5b6000600181111561044357610442610c09565b5b600260149054906101000a900460ff16600181111561046557610464610c09565b5b1461049c576040517f1425571c00000000000000000000000000000000000000000000000000000000815260040160405180910390fd5b6000339080600181540180825580915050600190039060005260206000200160009091909190916101000a81548173ffffffffffffffffffffffffffffffffffffffff021916908373ffffffffffffffffffffffffffffffffffffffff1602179055503373ffffffffffffffffffffffffffffffffffffffff167f0805e1d667bddb8a95f0f09880cf94f403fb596ce79928d9f29b74203ba284d460405160405180910390a2565b600061055e6040518060200160405280600081525061077a565b509050806105cd5747600080549050600260149054906101000a900460ff16600181111561058f5761058e610c09565b5b6040517f3a8d60860000000000000000000000000000000000000000000000000000000081526004016105c493929190611292565b60405180910390fd5b60007f000000000000000000000000000000000000000000000000000000000000000073ffffffffffffffffffffffffffffffffffffffff16635d3b1d307f00000000000000000000000000000000000000000000000000000000000000007f000000000000000000000000000000000000000000000000000000000000000060037f000000000000000000000000000000000000000000000000000000000000000060016040518663ffffffff1660e01b8152600401610692959493929190611341565b602060405180830381600087803b1580156106ac57600080fd5b505af11580156106c0573d6000803e3d6000fd5b505050506040513d601f19601f820116820180604052508101906106e491906113a9565b9050807f41eb194f8e72283e36363014be614f33204ce6cb2ede1163474be91f4d8f3cd960405160405180910390a250505050565b6000600260009054906101000a900473ffffffffffffffffffffffffffffffffffffffff16905090565b60007f0000000000000000000000000000000000000000000000000000000000000000905090565b6000600163ffffffff16905090565b600060606000600260149054906101000a900460ff1660018111156107a2576107a1610c09565b5b600060018111156107b6576107b5610c09565b5b14905060007f0000000000000000000000000000000000000000000000000000000000000000600154426107ea9190611405565b1190506000806000805490501190506000804711905083801561080a5750825b80156108135750815b801561081c5750815b80156108255750805b955050505050915091565b60007f0000000000000000000000000000000000000000000000000000000000000000905090565b60008080549050905090565b6000600361ffff16905090565b6000600154905090565b60008082815481106108905761088f611439565b5b9060005260206000200160009054906101000a900473ffffffffffffffffffffffffffffffffffffffff169050919050565b6001600260146101000a81548160ff021916908360018111156108e8576108e7610c09565b5b0217905550600080805490508260008151811061090857610907611439565b5b602002602001015161091a9190611497565b9050600080828154811061093157610930611439565b5b9060005260206000200160009054906101000a900473ffffffffffffffffffffffffffffffffffffffff16905080600260006101000a81548173ffffffffffffffffffffffffffffffffffffffff021916908373ffffffffffffffffffffffffffffffffffffffff1602179055506000600260146101000a81548160ff021916908360018111156109c5576109c4610c09565b5b0217905550600067ffffffffffffffff8111156109e5576109e4610cfb565b5b604051908082528060200260200182016040528015610a135781602001602082028036833780820191505090505b5060009080519060200190610a29929190610b62565b50426001819055506000600260009054906101000a900473ffffffffffffffffffffffffffffffffffffffff1673ffffffffffffffffffffffffffffffffffffffff1647604051610a79906114f9565b60006040518083038185875af1925050503d8060008114610ab6576040519150601f19603f3d011682016040523d82523d6000602084013e610abb565b606091505b5050905080610af6576040517fba31c4f300000000000000000000000000000000000000000000000000000000815260040160405180910390fd5b600260009054906101000a900473ffffffffffffffffffffffffffffffffffffffff1673ffffffffffffffffffffffffffffffffffffffff167fb11c56e61687731aa474e7daf4e9f12109b5ddb7f02564b6d280e0660da6b51a60405160405180910390a25050505050565b828054828255906000526020600020908101928215610bdb579160200282015b82811115610bda5782518260006101000a81548173ffffffffffffffffffffffffffffffffffffffff021916908373ffffffffffffffffffffffffffffffffffffffff16021790555091602001919060010190610b82565b5b509050610be89190610bec565b5090565b5b80821115610c05576000816000905550600101610bed565b5090565b7f4e487b7100000000000000000000000000000000000000000000000000000000600052602160045260246000fd5b60028110610c4957610c48610c09565b5b50565b6000819050610c5a82610c38565b919050565b6000610c6a82610c4c565b9050919050565b610c7a81610c5f565b82525050565b6000602082019050610c956000830184610c71565b92915050565b6000604051905090565b600080fd5b600080fd5b6000819050919050565b610cc281610caf565b8114610ccd57600080fd5b50565b600081359050610cdf81610cb9565b92915050565b600080fd5b6000601f19601f8301169050919050565b7f4e487b7100000000000000000000000000000000000000000000000000000000600052604160045260246000fd5b610d3382610cea565b810181811067ffffffffffffffff82111715610d5257610d51610cfb565b5b80604052505050565b6000610d65610c9b565b9050610d718282610d2a565b919050565b600067ffffffffffffffff821115610d9157610d90610cfb565b5b602082029050602081019050919050565b600080fd5b6000610dba610db584610d76565b610d5b565b90508083825260208201905060208402830185811115610ddd57610ddc610da2565b5b835b81811015610e065780610df28882610cd0565b845260208401935050602081019050610ddf565b5050509392505050565b600082601f830112610e2557610e24610ce5565b5b8135610e35848260208601610da7565b91505092915050565b60008060408385031215610e5557610e54610ca5565b5b6000610e6385828601610cd0565b925050602083013567ffffffffffffffff811115610e8457610e83610caa565b5b610e9085828601610e10565b9150509250929050565b600080fd5b60008083601f840112610eb557610eb4610ce5565b5b8235905067ffffffffffffffff811115610ed257610ed1610e9a565b5b602083019150836001820283011115610eee57610eed610da2565b5b9250929050565b60008060208385031215610f0c57610f0b610ca5565b5b600083013567ffffffffffffffff811115610f2a57610f29610caa565b5b610f3685828601610e9f565b92509250509250929050565b600073ffffffffffffffffffffffffffffffffffffffff82169050919050565b6000610f6d82610f42565b9050919050565b610f7d81610f62565b82525050565b6000602082019050610f986000830184610f74565b92915050565b610fa781610caf565b82525050565b6000602082019050610fc26000830184610f9e565b92915050565b600080fd5b600067ffffffffffffffff821115610fe857610fe7610cfb565b5b610ff182610cea565b9050602081019050919050565b82818337600083830152505050565b600061102061101b84610fcd565b610d5b565b90508281526020810184848401111561103c5761103b610fc8565b5b611047848285610ffe565b509392505050565b600082601f83011261106457611063610ce5565b5b813561107484826020860161100d565b91505092915050565b60006020828403121561109357611092610ca5565b5b600082013567ffffffffffffffff8111156110b1576110b0610caa565b5b6110bd8482850161104f565b91505092915050565b60008115159050919050565b6110db816110c6565b82525050565b600081519050919050565b600082825260208201905092915050565b60005b8381101561111b578082015181840152602081019050611100565b8381111561112a576000848401525b50505050565b600061113b826110e1565b61114581856110ec565b93506111558185602086016110fd565b61115e81610cea565b840191505092915050565b600060408201905061117e60008301856110d2565b81810360208301526111908184611130565b90509392505050565b6000602082840312156111af576111ae610ca5565b5b60006111bd84828501610cd0565b91505092915050565b60006040820190506111db6000830185610f74565b6111e86020830184610f74565b9392505050565b600082825260208201905092915050565b7f506c65617365207472616e73666572206d6f7265206d6f6e657920746f20706160008201527f72746963697061746520696e20726166666c6500000000000000000000000000602082015250565b600061125c6033836111ef565b915061126782611200565b604082019050919050565b6000602082019050818103600083015261128b8161124f565b9050919050565b60006060820190506112a76000830186610f9e565b6112b46020830185610f9e565b6112c16040830184610f9e565b949350505050565b6000819050919050565b6112dc816112c9565b82525050565b600067ffffffffffffffff82169050919050565b6112ff816112e2565b82525050565b600061ffff82169050919050565b61131c81611305565b82525050565b600063ffffffff82169050919050565b61133b81611322565b82525050565b600060a08201905061135660008301886112d3565b61136360208301876112f6565b6113706040830186611313565b61137d6060830185611332565b61138a6080830184611332565b9695505050505050565b6000815190506113a381610cb9565b92915050565b6000602082840312156113bf576113be610ca5565b5b60006113cd84828501611394565b91505092915050565b7f4e487b7100000000000000000000000000000000000000000000000000000000600052601160045260246000fd5b600061141082610caf565b915061141b83610caf565b92508282101561142e5761142d6113d6565b5b828203905092915050565b7f4e487b7100000000000000000000000000000000000000000000000000000000600052603260045260246000fd5b7f4e487b7100000000000000000000000000000000000000000000000000000000600052601260045260246000fd5b60006114a282610caf565b91506114ad83610caf565b9250826114bd576114bc611468565b5b828206905092915050565b600081905092915050565b50565b60006114e36000836114c8565b91506114ee826114d3565b600082019050919050565b6000611504826114d6565b915081905091905056fea2646970667358221220ce80556f72fe06ad75e319ff886e095cf8548da1f87cb68b5c825593ae3340ad64736f6c63430008080033",
  "devdoc": {
    "kind": "dev",
    "methods": {},
    "version": 1
  },
  "userdoc": {
    "kind": "user",
    "methods": {},
    "version": 1
  },
  "storageLayout": {
    "storage": [
      {
        "astId": 191,
        "contract": "contracts/Raffle.sol:Raffle",
        "label": "s_players",
        "offset": 0,
        "slot": "0",
        "type": "t_array(t_address_payable)dyn_storage"
      },
      {
        "astId": 208,
        "contract": "contracts/Raffle.sol:Raffle",
        "label": "s_lastTimeStamp",
        "offset": 0,
        "slot": "1",
        "type": "t_uint256"
      },
      {
        "astId": 227,
        "contract": "contracts/Raffle.sol:Raffle",
        "label": "s_recentWinner",
        "offset": 0,
        "slot": "2",
        "type": "t_address_payable"
      },
      {
        "astId": 232,
        "contract": "contracts/Raffle.sol:Raffle",
        "label": "raffleState",
        "offset": 20,
        "slot": "2",
        "type": "t_enum(RaffleState)213"
      }
    ],
    "types": {
      "t_address_payable": {
        "encoding": "inplace",
        "label": "address payable",
        "numberOfBytes": "20"
      },
      "t_array(t_address_payable)dyn_storage": {
        "base": "t_address_payable",
        "encoding": "dynamic_array",
        "label": "address payable[]",
        "numberOfBytes": "32"
      },
      "t_enum(RaffleState)213": {
        "encoding": "inplace",
        "label": "enum Raffle.RaffleState",
        "numberOfBytes": "1"
      },
      "t_uint256": {
        "encoding": "inplace",
        "label": "uint256",
        "numberOfBytes": "32"
      }
    }
  }
}