{
  "address": "0x5ED8a4598Fe4C6180eAd699897aF2DEA68690bc6",
  "abi": [
    {
      "inputs": [
        {
          "internalType": "address",
          "name": "vrfCoordinator",
          "type": "address"
        },
        {
          "internalType": "uint256",
          "name": "entrancefees",
          "type": "uint256"
        },
        {
          "internalType": "bytes32",
          "name": "gasLane",
          "type": "bytes32"
        },
        {
          "internalType": "uint64",
          "name": "subscriptionId",
          "type": "uint64"
        },
        {
          "internalType": "uint32",
          "name": "callbackGasLimit",
          "type": "uint32"
        },
        {
          "internalType": "uint256",
          "name": "interval",
          "type": "uint256"
        }
      ],
      "stateMutability": "nonpayable",
      "type": "constructor"
    },
    {
      "inputs": [
        {
          "internalType": "address",
          "name": "have",
          "type": "address"
        },
        {
          "internalType": "address",
          "name": "want",
          "type": "address"
        }
      ],
      "name": "OnlyCoordinatorCanFulfill",
      "type": "error"
    },
    {
      "inputs": [],
      "name": "Raffle_TransferFailed",
      "type": "error"
    },
    {
      "inputs": [],
      "name": "Raffle__NotOpen",
      "type": "error"
    },
    {
      "inputs": [
        {
          "internalType": "uint256",
          "name": "balance",
          "type": "uint256"
        },
        {
          "internalType": "uint256",
          "name": "numPLayers",
          "type": "uint256"
        },
        {
          "internalType": "uint256",
          "name": "raffleState",
          "type": "uint256"
        }
      ],
      "name": "Raffle__UpKeepNotNeeded",
      "type": "error"
    },
    {
      "anonymous": false,
      "inputs": [
        {
          "indexed": true,
          "internalType": "address",
          "name": "player",
          "type": "address"
        }
      ],
      "name": "RaffleEnter",
      "type": "event"
    },
    {
      "anonymous": false,
      "inputs": [
        {
          "indexed": true,
          "internalType": "uint256",
          "name": "requestId",
          "type": "uint256"
        }
      ],
      "name": "RequestRandomNumber",
      "type": "event"
    },
    {
      "anonymous": false,
      "inputs": [
        {
          "indexed": true,
          "internalType": "address",
          "name": "winner",
          "type": "address"
        }
      ],
      "name": "Winners",
      "type": "event"
    },
    {
      "inputs": [
        {
          "internalType": "bytes",
          "name": "",
          "type": "bytes"
        }
      ],
      "name": "checkUpkeep",
      "outputs": [
        {
          "internalType": "bool",
          "name": "upkeepNeeded",
          "type": "bool"
        },
        {
          "internalType": "bytes",
          "name": "",
          "type": "bytes"
        }
      ],
      "stateMutability": "nonpayable",
      "type": "function"
    },
    {
      "inputs": [],
      "name": "enterRaffle",
      "outputs": [],
      "stateMutability": "payable",
      "type": "function"
    },
    {
      "inputs": [],
      "name": "getEntranceFees",
      "outputs": [
        {
          "internalType": "uint256",
          "name": "",
          "type": "uint256"
        }
      ],
      "stateMutability": "view",
      "type": "function"
    },
    {
      "inputs": [],
      "name": "getInterval",
      "outputs": [
        {
          "internalType": "uint256",
          "name": "",
          "type": "uint256"
        }
      ],
      "stateMutability": "view",
      "type": "function"
    },
    {
      "inputs": [],
      "name": "getLastTimeStamp",
      "outputs": [
        {
          "internalType": "uint256",
          "name": "",
          "type": "uint256"
        }
      ],
      "stateMutability": "view",
      "type": "function"
    },
    {
      "inputs": [],
      "name": "getNumWords",
      "outputs": [
        {
          "internalType": "uint256",
          "name": "",
          "type": "uint256"
        }
      ],
      "stateMutability": "pure",
      "type": "function"
    },
    {
      "inputs": [],
      "name": "getNumberofPlayers",
      "outputs": [
        {
          "internalType": "uint256",
          "name": "",
          "type": "uint256"
        }
      ],
      "stateMutability": "view",
      "type": "function"
    },
    {
      "inputs": [
        {
          "internalType": "uint256",
          "name": "index",
          "type": "uint256"
        }
      ],
      "name": "getPlayer",
      "outputs": [
        {
          "internalType": "address",
          "name": "",
          "type": "address"
        }
      ],
      "stateMutability": "view",
      "type": "function"
    },
    {
      "inputs": [],
      "name": "getRaffleState",
      "outputs": [
        {
          "internalType": "enum Raffle.RaffleState",
          "name": "",
          "type": "uint8"
        }
      ],
      "stateMutability": "view",
      "type": "function"
    },
    {
      "inputs": [],
      "name": "getRecentWinner",
      "outputs": [
        {
          "internalType": "address",
          "name": "",
          "type": "address"
        }
      ],
      "stateMutability": "view",
      "type": "function"
    },
    {
      "inputs": [
        {
          "internalType": "bytes",
          "name": "",
          "type": "bytes"
        }
      ],
      "name": "performUpkeep",
      "outputs": [],
      "stateMutability": "nonpayable",
      "type": "function"
    },
    {
      "inputs": [
        {
          "internalType": "uint256",
          "name": "requestId",
          "type": "uint256"
        },
        {
          "internalType": "uint256[]",
          "name": "randomWords",
          "type": "uint256[]"
        }
      ],
      "name": "rawFulfillRandomWords",
      "outputs": [],
      "stateMutability": "nonpayable",
      "type": "function"
    },
    {
      "inputs": [],
      "name": "requestConfirmations",
      "outputs": [
        {
          "internalType": "uint256",
          "name": "",
          "type": "uint256"
        }
      ],
      "stateMutability": "pure",
      "type": "function"
    }
  ],
  "transactionHash": "0xb4b6899ffdd441eeb7d24b98dfa80e908a919254091a2e82fade3f7326233481",
  "args": [
    "0x6168499c0cFfCaCD319c818142124B7A15E857ab",
    "10000000000000000",
    "0xd89b2bf150e3b9e13446986e571fb9cab24b13cea0a43ea20a6049a85cc807cc",
    "6642",
    "500000",
    "30"
  ],
  "numDeployments": 1,
  "solcInputHash": "305943aa2d7fe9f66422c10a5d13c5d0",
  "bytecode": "0x6101606040526000600260146101000a81548160ff021916908360018111156200002e576200002d6200013a565b5b02179055503480156200004057600080fd5b5060405162001922380380620019228339818101604052810190620000669190620002cf565b858073ffffffffffffffffffffffffffffffffffffffff1660808173ffffffffffffffffffffffffffffffffffffffff1660601b81525050508573ffffffffffffffffffffffffffffffffffffffff1660c08173ffffffffffffffffffffffffffffffffffffffff1660601b815250508460a081815250508360e081815250508267ffffffffffffffff166101008167ffffffffffffffff1660c01b815250508163ffffffff166101208163ffffffff1660e01b81525050426001819055508061014081815250505050505050506200036b565b7f4e487b7100000000000000000000000000000000000000000000000000000000600052602160045260246000fd5b600080fd5b600073ffffffffffffffffffffffffffffffffffffffff82169050919050565b60006200019b826200016e565b9050919050565b620001ad816200018e565b8114620001b957600080fd5b50565b600081519050620001cd81620001a2565b92915050565b6000819050919050565b620001e881620001d3565b8114620001f457600080fd5b50565b6000815190506200020881620001dd565b92915050565b6000819050919050565b62000223816200020e565b81146200022f57600080fd5b50565b600081519050620002438162000218565b92915050565b600067ffffffffffffffff82169050919050565b620002688162000249565b81146200027457600080fd5b50565b60008151905062000288816200025d565b92915050565b600063ffffffff82169050919050565b620002a9816200028e565b8114620002b557600080fd5b50565b600081519050620002c9816200029e565b92915050565b60008060008060008060c08789031215620002ef57620002ee62000169565b5b6000620002ff89828a01620001bc565b96505060206200031289828a01620001f7565b95505060406200032589828a0162000232565b94505060606200033889828a0162000277565b93505060806200034b89828a01620002b8565b92505060a06200035e89828a01620001f7565b9150509295509295509295565b60805160601c60a05160c05160601c60e0516101005160c01c6101205160e01c6101405161153b620003e7600039600081816107f401526108620152600061067c0152600061065901526000610638015260006105fc0152600081816103cf015261077e01526000818161030f0152610363015261153b6000f3fe6080604052600436106100c25760003560e01c80634a26d4f41161007f57806391ad27b41161005957806391ad27b414610238578063b0fb162f14610263578063c1c244e81461028e578063e55ae4e8146102b9576100c2565b80634a26d4f4146101a457806353a2c19a146101cf5780636e04ff0d146101fa576100c2565b8063115cbaf5146100c75780631fe543e3146100f25780632cfcc5391461011b5780634585e33b14610125578063473f1ddc1461014e57806349a706ce14610179575b600080fd5b3480156100d357600080fd5b506100dc6102f6565b6040516100e99190610c77565b60405180910390f35b3480156100fe57600080fd5b5061011960048036038101906101149190610e35565b61030d565b005b6101236103cd565b005b34801561013157600080fd5b5061014c60048036038101906101479190610eec565b610544565b005b34801561015a57600080fd5b50610163610744565b6040516101709190610f7a565b60405180910390f35b34801561018557600080fd5b5061018e61076e565b60405161019b9190610fa4565b60405180910390f35b3480156101b057600080fd5b506101b961077a565b6040516101c69190610fa4565b60405180910390f35b3480156101db57600080fd5b506101e46107a2565b6040516101f19190610fa4565b60405180910390f35b34801561020657600080fd5b50610221600480360381019061021c9190611074565b6107b1565b60405161022f929190611160565b60405180910390f35b34801561024457600080fd5b5061024d61085e565b60405161025a9190610fa4565b60405180910390f35b34801561026f57600080fd5b50610278610886565b6040516102859190610fa4565b60405180910390f35b34801561029a57600080fd5b506102a3610893565b6040516102b09190610fa4565b60405180910390f35b3480156102c557600080fd5b506102e060048036038101906102db9190611190565b61089d565b6040516102ed9190610f7a565b60405180910390f35b6000600260149054906101000a900460ff16905090565b7f000000000000000000000000000000000000000000000000000000000000000073ffffffffffffffffffffffffffffffffffffffff163373ffffffffffffffffffffffffffffffffffffffff16146103bf57337f00000000000000000000000000000000000000000000000000000000000000006040517f1cf993f40000000000000000000000000000000000000000000000000000000081526004016103b69291906111bd565b60405180910390fd5b6103c982826108e4565b5050565b7f0000000000000000000000000000000000000000000000000000000000000000341461042f576040517f08c379a000000000000000000000000000000000000000000000000000000000815260040161042690611269565b60405180910390fd5b6000600181111561044357610442610c00565b5b600260149054906101000a900460ff16600181111561046557610464610c00565b5b1461049c576040517f1425571c00000000000000000000000000000000000000000000000000000000815260040160405180910390fd5b6000339080600181540180825580915050600190039060005260206000200160009091909190916101000a81548173ffffffffffffffffffffffffffffffffffffffff021916908373ffffffffffffffffffffffffffffffffffffffff1602179055503373ffffffffffffffffffffffffffffffffffffffff167f0805e1d667bddb8a95f0f09880cf94f403fb596ce79928d9f29b74203ba284d460405160405180910390a2565b600061055e604051806020016040528060008152506107b1565b509050806105cd5747600080549050600260149054906101000a900460ff16600181111561058f5761058e610c00565b5b6040517f3a8d60860000000000000000000000000000000000000000000000000000000081526004016105c493929190611289565b60405180910390fd5b6001600260146101000a81548160ff021916908360018111156105f3576105f2610c00565b5b021790555060007f000000000000000000000000000000000000000000000000000000000000000073ffffffffffffffffffffffffffffffffffffffff16635d3b1d307f00000000000000000000000000000000000000000000000000000000000000007f000000000000000000000000000000000000000000000000000000000000000060037f000000000000000000000000000000000000000000000000000000000000000060016040518663ffffffff1660e01b81526004016106bd959493929190611338565b602060405180830381600087803b1580156106d757600080fd5b505af11580156106eb573d6000803e3d6000fd5b505050506040513d601f19601f8201168201806040525081019061070f91906113a0565b9050807f41eb194f8e72283e36363014be614f33204ce6cb2ede1163474be91f4d8f3cd960405160405180910390a250505050565b6000600260009054906101000a900473ffffffffffffffffffffffffffffffffffffffff16905090565b60008080549050905090565b60007f0000000000000000000000000000000000000000000000000000000000000000905090565b6000600163ffffffff16905090565b600060606000600260149054906101000a900460ff1660018111156107d9576107d8610c00565b5b600060018111156107ed576107ec610c00565b5b14905060007f00000000000000000000000000000000000000000000000000000000000000006001544261082191906113fc565b119050600080600080549050119050600080471190508380156108415750825b801561084a5750815b80156108535750805b955050505050915091565b60007f0000000000000000000000000000000000000000000000000000000000000000905090565b6000600361ffff16905090565b6000600154905090565b60008082815481106108b2576108b1611430565b5b9060005260206000200160009054906101000a900473ffffffffffffffffffffffffffffffffffffffff169050919050565b60008080549050826000815181106108ff576108fe611430565b5b6020026020010151610911919061148e565b9050600080828154811061092857610927611430565b5b9060005260206000200160009054906101000a900473ffffffffffffffffffffffffffffffffffffffff16905080600260006101000a81548173ffffffffffffffffffffffffffffffffffffffff021916908373ffffffffffffffffffffffffffffffffffffffff1602179055506000600260146101000a81548160ff021916908360018111156109bc576109bb610c00565b5b0217905550600067ffffffffffffffff8111156109dc576109db610cf2565b5b604051908082528060200260200182016040528015610a0a5781602001602082028036833780820191505090505b5060009080519060200190610a20929190610b59565b50426001819055506000600260009054906101000a900473ffffffffffffffffffffffffffffffffffffffff1673ffffffffffffffffffffffffffffffffffffffff1647604051610a70906114f0565b60006040518083038185875af1925050503d8060008114610aad576040519150601f19603f3d011682016040523d82523d6000602084013e610ab2565b606091505b5050905080610aed576040517fba31c4f300000000000000000000000000000000000000000000000000000000815260040160405180910390fd5b600260009054906101000a900473ffffffffffffffffffffffffffffffffffffffff1673ffffffffffffffffffffffffffffffffffffffff167fb11c56e61687731aa474e7daf4e9f12109b5ddb7f02564b6d280e0660da6b51a60405160405180910390a25050505050565b828054828255906000526020600020908101928215610bd2579160200282015b82811115610bd15782518260006101000a81548173ffffffffffffffffffffffffffffffffffffffff021916908373ffffffffffffffffffffffffffffffffffffffff16021790555091602001919060010190610b79565b5b509050610bdf9190610be3565b5090565b5b80821115610bfc576000816000905550600101610be4565b5090565b7f4e487b7100000000000000000000000000000000000000000000000000000000600052602160045260246000fd5b60028110610c4057610c3f610c00565b5b50565b6000819050610c5182610c2f565b919050565b6000610c6182610c43565b9050919050565b610c7181610c56565b82525050565b6000602082019050610c8c6000830184610c68565b92915050565b6000604051905090565b600080fd5b600080fd5b6000819050919050565b610cb981610ca6565b8114610cc457600080fd5b50565b600081359050610cd681610cb0565b92915050565b600080fd5b6000601f19601f8301169050919050565b7f4e487b7100000000000000000000000000000000000000000000000000000000600052604160045260246000fd5b610d2a82610ce1565b810181811067ffffffffffffffff82111715610d4957610d48610cf2565b5b80604052505050565b6000610d5c610c92565b9050610d688282610d21565b919050565b600067ffffffffffffffff821115610d8857610d87610cf2565b5b602082029050602081019050919050565b600080fd5b6000610db1610dac84610d6d565b610d52565b90508083825260208201905060208402830185811115610dd457610dd3610d99565b5b835b81811015610dfd5780610de98882610cc7565b845260208401935050602081019050610dd6565b5050509392505050565b600082601f830112610e1c57610e1b610cdc565b5b8135610e2c848260208601610d9e565b91505092915050565b60008060408385031215610e4c57610e4b610c9c565b5b6000610e5a85828601610cc7565b925050602083013567ffffffffffffffff811115610e7b57610e7a610ca1565b5b610e8785828601610e07565b9150509250929050565b600080fd5b60008083601f840112610eac57610eab610cdc565b5b8235905067ffffffffffffffff811115610ec957610ec8610e91565b5b602083019150836001820283011115610ee557610ee4610d99565b5b9250929050565b60008060208385031215610f0357610f02610c9c565b5b600083013567ffffffffffffffff811115610f2157610f20610ca1565b5b610f2d85828601610e96565b92509250509250929050565b600073ffffffffffffffffffffffffffffffffffffffff82169050919050565b6000610f6482610f39565b9050919050565b610f7481610f59565b82525050565b6000602082019050610f8f6000830184610f6b565b92915050565b610f9e81610ca6565b82525050565b6000602082019050610fb96000830184610f95565b92915050565b600080fd5b600067ffffffffffffffff821115610fdf57610fde610cf2565b5b610fe882610ce1565b9050602081019050919050565b82818337600083830152505050565b600061101761101284610fc4565b610d52565b90508281526020810184848401111561103357611032610fbf565b5b61103e848285610ff5565b509392505050565b600082601f83011261105b5761105a610cdc565b5b813561106b848260208601611004565b91505092915050565b60006020828403121561108a57611089610c9c565b5b600082013567ffffffffffffffff8111156110a8576110a7610ca1565b5b6110b484828501611046565b91505092915050565b60008115159050919050565b6110d2816110bd565b82525050565b600081519050919050565b600082825260208201905092915050565b60005b838110156111125780820151818401526020810190506110f7565b83811115611121576000848401525b50505050565b6000611132826110d8565b61113c81856110e3565b935061114c8185602086016110f4565b61115581610ce1565b840191505092915050565b600060408201905061117560008301856110c9565b81810360208301526111878184611127565b90509392505050565b6000602082840312156111a6576111a5610c9c565b5b60006111b484828501610cc7565b91505092915050565b60006040820190506111d26000830185610f6b565b6111df6020830184610f6b565b9392505050565b600082825260208201905092915050565b7f506c65617365207472616e73666572206d6f7265206d6f6e657920746f20706160008201527f72746963697061746520696e20726166666c6500000000000000000000000000602082015250565b60006112536033836111e6565b915061125e826111f7565b604082019050919050565b6000602082019050818103600083015261128281611246565b9050919050565b600060608201905061129e6000830186610f95565b6112ab6020830185610f95565b6112b86040830184610f95565b949350505050565b6000819050919050565b6112d3816112c0565b82525050565b600067ffffffffffffffff82169050919050565b6112f6816112d9565b82525050565b600061ffff82169050919050565b611313816112fc565b82525050565b600063ffffffff82169050919050565b61133281611319565b82525050565b600060a08201905061134d60008301886112ca565b61135a60208301876112ed565b611367604083018661130a565b6113746060830185611329565b6113816080830184611329565b9695505050505050565b60008151905061139a81610cb0565b92915050565b6000602082840312156113b6576113b5610c9c565b5b60006113c48482850161138b565b91505092915050565b7f4e487b7100000000000000000000000000000000000000000000000000000000600052601160045260246000fd5b600061140782610ca6565b915061141283610ca6565b925082821015611425576114246113cd565b5b828203905092915050565b7f4e487b7100000000000000000000000000000000000000000000000000000000600052603260045260246000fd5b7f4e487b7100000000000000000000000000000000000000000000000000000000600052601260045260246000fd5b600061149982610ca6565b91506114a483610ca6565b9250826114b4576114b361145f565b5b828206905092915050565b600081905092915050565b50565b60006114da6000836114bf565b91506114e5826114ca565b600082019050919050565b60006114fb826114cd565b915081905091905056fea2646970667358221220f8f74f810f19dbe45529fe866144787db91a35c5f28262431c87487ebb83a85f64736f6c63430008080033",
  "devdoc": {
    "kind": "dev",
    "methods": {},
    "version": 1
  },
  "userdoc": {
    "kind": "user",
    "methods": {},
    "version": 1
  },
  "storageLayout": {
    "storage": [
      {
        "astId": 191,
        "contract": "contracts/Raffle.sol:Raffle",
        "label": "s_players",
        "offset": 0,
        "slot": "0",
        "type": "t_array(t_address_payable)dyn_storage"
      },
      {
        "astId": 208,
        "contract": "contracts/Raffle.sol:Raffle",
        "label": "s_lastTimeStamp",
        "offset": 0,
        "slot": "1",
        "type": "t_uint256"
      },
      {
        "astId": 227,
        "contract": "contracts/Raffle.sol:Raffle",
        "label": "s_recentWinner",
        "offset": 0,
        "slot": "2",
        "type": "t_address_payable"
      },
      {
        "astId": 232,
        "contract": "contracts/Raffle.sol:Raffle",
        "label": "raffleState",
        "offset": 20,
        "slot": "2",
        "type": "t_enum(RaffleState)213"
      }
    ],
    "types": {
      "t_address_payable": {
        "encoding": "inplace",
        "label": "address payable",
        "numberOfBytes": "20"
      },
      "t_array(t_address_payable)dyn_storage": {
        "base": "t_address_payable",
        "encoding": "dynamic_array",
        "label": "address payable[]",
        "numberOfBytes": "32"
      },
      "t_enum(RaffleState)213": {
        "encoding": "inplace",
        "label": "enum Raffle.RaffleState",
        "numberOfBytes": "1"
      },
      "t_uint256": {
        "encoding": "inplace",
        "label": "uint256",
        "numberOfBytes": "32"
      }
    }
  }
}